:020000040800F2
:10000000A8A20020E1010008991100089B11000836
:100010009F110008A3110008A711000800000000AC
:10002000000000000000000000000000490100087E
:10003000AB110008000000008D010008AD110008A0
:10004000FB010008FB010008FB010008FB010008A0
:10005000FB010008FB010008FB010008FB01000890
:10006000FB010008FB010008FB010008FB01000880
:10007000FB010008FB010008FB010008FB01000870
:10008000FB010008FB010008FB010008FB01000860
:10009000FB010008FB010008FB010008FB01000850
:1000A000FB010008FB010008FB010008FB01000840
:1000B000FB010008FB010008FB010008FB01000830
:1000C000FB010008FB010008FB010008FB01000820
:1000D000FB010008FB010008FB010008FB01000810
:1000E000FB010008FB010008FB010008FB01000800
:1000F000FB010008FB010008FB010008FB010008F0
:10010000FB010008FB010008FB010008FB010008DF
:10011000FB010008FB010008FB010008FB010008CF
:10012000FB010008FB010008FB010008FB010008BF
:10013000DFF810D002F056FE004800474F100008CC
:10014000AFF30080A8A20020224B19680868B0E82D
:10015000F00F80F30988BFF36F8F4FF0000080F33A
:1001600011884EF00D0E7047000000000648006830
:10017000006880F3088862B661B6BFF34F8FBFF3A3
:100180006F8F00DF00BF00BF08ED00E0EFF30980D4
:10019000BFF36F8F0F4B1A6820E9F00F106008B59E
:1001A0004FF0500080F31188BFF34F8FBFF36F8F74
:1001B00001F007FE4FF0000080F31188BDE8084011
:1001C00019680868B0E8F00F80F30988BFF36F8FF3
:1001D000704700BF30000020EFF30580704700003B
:1001E0000648804706480047FEE7FEE7FEE7FEE7D1
:1001F000FEE7FEE7FEE7FEE7FEE7FEE7E3020008B4
:10020000310100080CB50020019000906C48006896
:1002100040F480306A49086000BF6948006800F413
:10022000003000900198401C0190009818B9019886
:10023000B0F5A06FF1D16248006800F4003010B151
:100240000120009001E0002000900098012843D197
:100250005C48006840F010005A4908600846006891
:1002600020F0030008600846006840F002000860C3
:10027000534840685249486008464068486008460C
:10028000406840F4806048600846406820F47C1074
:1002900048600846406840F4E81048600846006836
:1002A00040F08070086000BF4548006800F00070B2
:1002B0000028F9D04248406820F0030040494860D7
:1002C0000846406840F00200486000BF3C48406873
:1002D00000F00C000828F9D10CBD10B5FFF792FF13
:1002E00010BD10B53648006840F001003449086080
:1002F000084640683449084031494860084600686B
:10030000324908402E4908600846006820F48020E1
:1003100008600846406820F4FE0048604FF41F0063
:100320008860FFF7DAFF4FF000602949086010BDD0
:1003300010B5002100200022214B5B6803F00C0166
:1003400021B1042906D0082928D107E0214B224CED
:10035000236027E01F4B204C236023E0184B5B6891
:1003600003F47010164B5B6803F48032022303EB36
:10037000904022B9194B4343174C23600DE0104BBA
:100380005B6803F4003323B1144B4343124C2360E6
:1003900003E0104B4343104C236003E00D4B0E4C25
:1003A000236000BF00BF064B5B68C3F303130C4C14
:1003B000E15C094B1B68CB40074C236010BD00007B
:1003C00000100240002002400000FFF8FFFFF6FE90
:1003D00008ED00E000127A000000002000093D0056
:1003E0000400002031490143314A1160704770B563
:1003F000002100230F22C47804B32D4C246804F498
:10040000E064C4F5E064210AC1F10403CA40447801
:1004100004FA03F18478144021430901254C06783D
:10042000A155047804F01F050124AC4005786D1136
:10043000AD0005F1E025C5F8004109E0047804F0BD
:100440001F050124AC401C4D0678761145F8264066
:1004500070BD1A4A0A400243154B1B1F1A607047B1
:1004600039B1134A121D12680243114B1B1D1A6049
:1004700006E00F4A121D126882430D4B1B1D1A60C5
:100480007047042808D14FF0E021096941F00401C8
:100490004FF0E022116107E04FF0E021096921F0FF
:1004A00004014FF0E0221161704700000000FA05DE
:1004B0000CED00E000E400E080E100E080FFFF1FC1
:1004C00010B50446CC48844208D10121042000F034
:1004D0002DFB0021042000F029FB46E0C7488442A0
:1004E00008D10121082000F021FB0021082000F0A4
:1004F0001DFB3AE0C248844208D10121102000F0DF
:1005000015FB0021102000F011FB2EE0BD488442B5
:1005100008D10121202000F009FB0021202000F05B
:1005200005FB22E0B848844208D10121402000F0B8
:10053000FDFA0021402000F0F9FA16E0B3488442A9
:1005400008D10121802000F0F1FA0021802000F084
:10055000EDFA0AE0AE48844207D10121801500F08F
:10056000E5FA0021A01500F0E1FA10BD10B5012157
:10057000084600F0DBFA0021012000F0D7FA10BD98
:100580002DE9F0410246002500260020002300242A
:10059000002791F803C00CF00F0591F803C00CF090
:1005A000100CBCF1000F03D091F802C04CEA050515
:1005B00091F800C0BCF1000F31D0146800202BE08E
:1005C0004FF0010C0CFA00F3B1F800C00CEA03067E
:1005D0009E4220D183004FF00F0C0CFA03F7BC436E
:1005E00005FA03FC4CEA040491F803C0BCF1280F9F
:1005F00006D14FF0010C0CFA00FCC2F814C00AE05E
:1006000091F803C0BCF1480F05D14FF0010C0CFA72
:1006100000FCC2F810C0401C0828D1D31460B1F807
:1006200000C0BCF1FF0F34DD546800202EE000F163
:10063000080C4FF0010808FA0CF3B1F800C00CEAFE
:1006400003069E4221D183004FF00F0C0CFA03F7F2
:10065000BC4305FA03FC4CEA040491F803C0BCF166
:10066000280F05D100F1080C08FA0CF8C2F8148024
:1006700091F803C0BCF1480F07D100F1080C4FF00E
:10068000010808FA0CF8C2F81080401C0828CED3E4
:100690005460BDE8F0814FF6FF7101800221817046
:1006A0000421C17070470246002093680B400BB1D3
:1006B000012000E0002070470146886880B2704742
:1006C00002460020D3680B400BB1012000E000205F
:1006D00070470146C86880B2704701617047416148
:1006E00070470AB1016100E041617047C160704725
:1006F0004FF480320A43826181618261826982693A
:10070000704702460020434B18684FF6807318402C
:1007100040EA021008433F4B186070473E49C861E9
:100720007047F0B50A46002300240021002500F0A0
:100730000046B6F1004F02D1364EF16901E0354E68
:100740007168C0F3034583B200F44016B6F5401F4C
:1007500008D121F070612F4E766826F070662D4F1B
:100760007E6012E000F48016B6F5801F06D10326E5
:1007700006FA05F4A14341F0706106E0460D36012A
:1007800003FA06F6B14341F0706122B1460D36011D
:1007900003FA06F6314300F00046B6F1004F02D1ED
:1007A0001C4EF16101E01B4E7160F0BD30B50022BE
:1007B0008B071C0F0F2303FA04F2164B08338C101F
:1007C00053F824309343134C08348D1044F82530EB
:1007D00023468C1053F824308C07240F00FA04F4BD
:1007E00023430C4C08348D1044F8253030BD0A49A1
:1007F000DC3108607047000000080140000C014037
:10080000001001400014014000180140001C01408C
:10081000002001400000014000002042DF48006845
:1008200040F00100DD49086008464068DC490840A6
:10083000DA49486008460068DA490840D749086044
:100840000846006820F4802008600846406820F4CC
:10085000FE0048604FF41F0088607047CF49096868
:1008600021F48031CD4A11601146096821F48021BC
:100870001160B0F5803F03D0B0F5802F0ED106E0B7
:10088000C649096841F48031C44A116007E0C34990
:10089000096841F4A021C14A116000E000BF00BF17
:1008A000704710B501460022002300204A11012A9A
:1008B00002D1BA4C236806E0022A02D1B74C236A5F
:1008C00001E0B64C636A01F01F02012494401C4011
:1008D0000CB1012000E0002010BD38B500200090D0
:1008E0000024002500BF3120FFF7DBFF05460098FC
:1008F000401C00900098B0F5A06F01D0002DF2D000
:100900003120FFF7CEFF08B1012400E0002420468B
:1009100038BD01460020A14A106820F0F80040EAE6
:10092000C10010607047A04908607047024600206F
:100930009A4B586820F47C1042EA01031843974B05
:100940005860704798490866704701460020934AEE
:10095000506820F003000843506070478F4840689B
:1009600000F00C007047014600208C4A506820F0CF
:10097000F00008435060704701460020874A5068E5
:1009800020F4E06008435060704701460020834A2D
:10099000506820F4605040EAC1005060704729B1AF
:1009A0007E4A527A02437D4B5A7204E07B4A527A65
:1009B00082437A4B5A7270477B49D831086070473E
:1009C00001460020754A506820F4404008435060BA
:1009D00070470021714A20321170704A82F820104D
:1009E000012802D004280AD104E001216B4A2032F8
:1009F000117005E00521694A2032117000E000BF46
:100A000000BF70476949086070476449096A01433B
:100A1000624A11627047654944390860704730B5D1
:100A200000210022002400235C4D6D6805F00C01BC
:100A300021B1042905D0082923D105E05C4D0560CA
:100A400022E05B4D05601FE0544D6D6805F47012A7
:100A5000524D6D6805F48034022505EB92421CB9B5
:100A6000544D554305600BE04C4D6D6805F4003561
:100A70001DB1504D5543056002E04D4D5543056095
:100A800002E04B4D056000BF00BF444D6D6805F0AE
:100A9000F0010909484D6B5C0568DD4045603F4D3C
:100AA0006D6805F4E061090A434D6B5C4568DD4003
:100AB00085603A4D6D6805F46051C90A3E4D6B5C26
:100AC0004568DD40C560354D6D6805F44041890BD2
:100AD0003A4D6B5CC568B5FBF3F5056130BD29B1D6
:100AE0002E4A526902432D4B5A6104E02B4A526947
:100AF00082432A4B5A61704729B1284A92690243BE
:100B0000264B9A6104E0254A92698243234B9A61FD
:100B1000704729B1214AD2690243204BDA6104E0CF
:100B20001E4AD26982431D4BDA61704729B11B4AC4
:100B3000D2680243194BDA6004E0184AD268824353
:100B4000164BDA60704729B1144A12690243134BFD
:100B50001A6104E0114A12698243104B1A6170470E
:100B600012494039086070470F49C86470470B4903
:100B7000C87170470948406A40F080700749486270
:100B8000704701460020054A92680A400AB10120D8
:100B900000E0002070470149887270470010024051
:100BA0000000FFF8FFFFF6FE0000424280044242D0
:100BB00000127A0000093D001400002024000020EB
:100BC00010B50446FB48844209D101218803FFF790
:100BD000ADFF00214FF48040FFF7A8FF32E0F64858
:100BE000844209D101214804FFF7ADFF00214FF4F1
:100BF0000030FFF7A8FF25E0F048844209D1012129
:100C00008804FFF7A0FF00214FF48020FFF79BFF2F
:100C100018E0EB48844209D10121C804FFF793FF93
:100C200000214FF40020FFF78EFF0BE0E5488442DF
:100C300008D101210805FFF786FF00214FF480103D
:100C4000FFF781FF10BD2DE9F04786B005460E463F
:100C50000024A24600BFA1460027B08900B100BF12
:100C60002F462C8A4CF6FF700440F08804432C82F7
:100C7000AC894EF6F3100440B0883189084371897D
:100C800008430443AC81AC8A4FF6FF400440B0896E
:100C90000443AC8201A8FFF7C2FEC648874202D1D6
:100CA000DDF810A001E0DDF80CA0A88900F40040F8
:100CB00040B10AEBCA0000EB0A1031684900B0FBF2
:100CC000F1F807E00AEBCA0000EB0A10316889006E
:100CD000B0FBF1F86420B8FBF0F0040120096421B6
:100CE00001FB1089A88900F4004040B1322000EBDC
:100CF000C900B0FBF1F000F00700044308E0322027
:100D000000EB09106421B0FBF1F000F00F00044388
:100D10002C8106B0BDE8F0874FF416510160002128
:100D20008180C18001810C21418100218181704736
:100D300010B502460020108A4FF2FF0318400B88BE
:100D40004C8823438C882343CC8823431843108248
:100D500010BD0021018041808180C180704721B198
:100D6000828942F40052828104E082894DF6FF7349
:100D70001A4082817047F0B5034600240026002502
:100D8000002040F66A17B94200D100BF1846C1F3EF
:100D9000421401F01F06012707FA06F5012C01D1C4
:100DA0000C3004E0022C01D1103000E014301AB1F4
:100DB00007682F43076002E00768AF430760F0BD94
:100DC0001AB1838A0B43838202E0838A8B43838236
:100DD0007047028A4FF6F0731A400282028A0A4371
:100DE0000282704782894FF2FF731A4082818289A2
:100DF0000A438281704721B1828942F002028281D6
:100E000004E082894FF6FD731A4082817047028A9E
:100E10004FF6DF731A400282028A0A430282704749
:100E200021B1028A42F48042028204E0028A4BF637
:100E3000FF731A4002827047C1F308028280704734
:100E400001468888C0F308007047818941F001019C
:100E500081817047028BD2B20283028B42EA012267
:100E600002837047028B02F47F420283028B0A43A3
:100E70000283704721B1828A42F02002828204E01C
:100E8000828A4FF6DF731A408282704721B1828ACC
:100E900042F01002828204E0828A4FF6EF731A4019
:100EA0008282704721B1828A42F00802828204E085
:100EB000828A4FF6F7731A408282704721B1828985
:100EC00042F40042828103E08289C2F30E028281F1
:100ED000704721B1828A42F40062828204E0828AF1
:100EE0004FF2FF731A4082827047828A4FF6FB737B
:100EF0001A408282828A0A438282704721B1828AA2
:100F000042F00202828204E0828A4FF6FD731A40A8
:100F10008282704702460020B1F5007F00D100BFF9
:100F200013880B400BB1012000E00020704701F452
:100F30000072B2F5007F00D100BFCA430280704743
:100F400070B50246002400230025002040F66A16F2
:100F5000B14200D100BFC1F3421501F01F030126C9
:100F600006FA03F3012D02D19689334006E0022DE3
:100F700002D1168A334001E0968A33400C120126D2
:100F800006FA04F41688344013B10CB1012000E0D5
:100F9000002070BD10B50022002340F66A14A14263
:100FA00000D100BF0A1201249440A3B2DC430480A4
:100FB00010BD0000003801400044004000480040DF
:100FC000004C00400050004014E0202035490860EB
:100FD0004FF4FA7000F0D2FD33A001F015FF20208D
:100FE0003049091F08604FF4FA7000F0C7FD35A0C2
:100FF00001F00AFFE9E70EB501F0E5FC3848394990
:1010000004220023CDE900210290802236A1394834
:1010100000F0DBFA384908600846006818B137A0CC
:1010200001F0F2FE02E03BA001F0EEFE3F48006856
:1010300000F072FB01F0EAFC0EBD10B54FF44070F9
:10104000FFF7D0F900F0BAF800F0FBF810BD0EB5CC
:10105000FFF7F3FF36A001F0D7FE444844490322CE
:101060000023CDE900210290802242A1454800F0F2
:10107000ACFA2E4908600846006808B101F023F870
:1010800000BFFEE7404B0360404B0B6080231360C2
:1010900070473F4B03603F4B0B604FF4807313600E
:1010A00070470000140C01404C45445F5461736B61
:1010B0002052756E6E696E672C4C4544315F4F4E01
:1010C0000D0A00004C45445F5461736B2052756EED
:1010D0006E696E672C4C4544315F4F46460D0A00E1
:1010E000E0040020940200204C45445F5461736B7F
:1010F00000000000C90F00082C0000204C45445F90
:101100005461736BC8CECEF1B4B4BDA8B3C9B9A64F
:10111000210A00004C45445F5461736BC8CECEF188
:10112000B4B4BDA8CAA7B0DC210A00002800002082
:10113000D5E2CAC7D2BBB8F65BD2B0BBF05D2D53C7
:10114000544D3332C8ABCFB5C1D0BFAAB7A2B0E5BA
:101150002D4672656552544F532DBEB2CCACB4B41B
:10116000BDA8B5A5C8CECEF1210D0A00940400207B
:10117000940000204170705461736B437265617418
:1011800065000000F70F00082C0B00202C05002044
:10119000780B00202C070020704700BFFEE700BF3F
:1011A000FEE700BFFEE700BFFEE7704710B501F0A5
:1011B0003DF9012801D001F041FC10BD08B5012125
:1011C0000820FFF799FC2020ADF8000010208DF8D2
:1011D000030003208DF8020069460F48FFF7D0F99D
:1011E0000120ADF8000069460B48FFF7C9F902205D
:1011F000ADF8000069460848FFF7C2F9202106480B
:10120000FFF76BFA01210448FFF767FA0221024851
:10121000FFF763FA08BD0000000C014008B54FF469
:10122000A060FFF7DFF825208DF8000001208DF881
:1012300001008DF802008DF803006846FFF7D7F82B
:1012400008BD00B585B001210420FFF755FC012140
:101250008803FFF751FC4FF40070ADF81000182020
:101260008DF8130003208DF8120004A95248FFF7EF
:1012700087F94FF48060ADF8100004208DF813005A
:1012800004A94D48FFF77CF94FF4E13000900020AD
:10129000ADF80400ADF80600ADF80800ADF80C009C
:1012A0000C20ADF80A0069464448FFF7CCFCFFF774
:1012B000B5FF012240F225514048FFF75CFD0121B6
:1012C0003E48FFF74CFD05B000BD70B504460D4625
:1012D00029462046FFF7B0FD00BF80212046FFF7DA
:1012E00019FE0028F9D070BD2DE9F04107460D46E2
:1012F0001646002405E0295D3846FFF7E6FF601C2E
:10130000C4B2B442F7DB00BF40213846FFF702FE0B
:101310000028F9D0BDE8F08170B506460C460025DE
:1013200000BF615D3046FFF7D0FF6D1C605D002897
:10133000F7D100BF40213046FFF7ECFD0028F9D07F
:1013400070BD2DE9F04105460C46260AE7B231464C
:101350002846FFF771FD00BF80212846FFF7DAFD20
:101360000028F9D039462846FFF766FD00BF8021E6
:101370002846FFF7CFFD0028F9D0BDE8F08170B511
:1013800004460D46E1B20D48FFF756FD00BF80212F
:101390000A48FFF7BFFD0028F9D0204670BD10B500
:1013A000044600BF20210548FFF7B4FD0028F9D00E
:1013B0000248FFF745FD10BD00080140003801401C
:1013C00000F1080141604FF0FF31816000F1080138
:1013D000C160016100210160704700210161704717
:1013E00042684A6093688B609368596091600861B5
:1013F00003685B1C0360704710B502460B685C1CF9
:101400000CB9106907E002F1080000E04068446888
:1014100024689C42FAD944684C604C68A16088609A
:1014200041600A611468641C146010BD01460A69B9
:10143000D1E901309860D1E90103586050688842D1
:1014400001D188685060002008611068401E10605B
:101450001068704710B5002407E004EB8401FA4AD5
:1014600002EB8100FFF7ACFF641C202CF5D3F7489A
:10147000FFF7A6FFF648FFF7A3FFF648FFF7A0FF28
:10148000F548FFF79DFFF548FFF79AFFEF48F4494D
:101490000860EF48F349086010BD10B5044601F03C
:1014A00092FAF1480068401CEF490860EF48006874
:1014B00040B9EE4804600846006801280DD1FFF7E6
:1014C000C9FF0AE0EA48006838B9E8480068C06A1D
:1014D000E16A884201D8E5480460E6480068401C9B
:1014E000E449086094F82C1001208840E24909681A
:1014F0000843E1490860E16A01EB8101D24A02EB4D
:101500008100211DFFF76CFF01F080FAD8480068C8
:1015100068B1D6480068C06AE16A884207D24FF0D5
:101520008050D6490860BFF34F8FBFF36F8F10BD57
:101530002DE9FF5F81460E469246DDE90E7B109C49
:10154000AAF10100216B01EB800828F0070808F0E0
:10155000070008B9012000E0002028B940F22B3232
:10156000C7A1CEA001F050FC002507E0715D04F199
:1015700034004155705D00B902E06D1C102DF5D3AB
:1015800000BF002143200155202F00D31F27E76211
:10159000201DFFF722FF04F11800FFF71EFF246152
:1015A000C7F12000A06164620020606484F84800F4
:1015B00049464046039A01F093F92060BBF1000FC1
:1015C00001D0CBF80040BDE8FF9F2DE9F04F85B07A
:1015D0000746884691469A46DDE90EB6109C0EB144
:1015E000012000E0002028B940F25522A4A1ABA0C0
:1015F00001F00AFC0CB1012000E0002028B940F203
:1016000056229FA1A5A001F0FFFBACB1A6B12546D3
:101610002E63022085F84900002004A953464A465B
:10162000CDE900B1CDE9025041463846FFF780FFD1
:101630002846FFF732FF01E000200490049805B02F
:10164000BDE8F08F2DE9FF4F85B0804689461746EB
:10165000DDE912ABB80001F0C0FA064656B14C20E5
:1016600001F0BBFA04460CB1266304E0304601F0F9
:1016700037FB00E000248CB1002084F84900CDE95C
:1016800000ABCDE902403A4649464046089BFFF789
:101690004FFF2046FFF701FF012501E04FF0FF3526
:1016A000284609B0BDE8F08F6D490968096809B995
:1016B000012100E0002121B14FF0FF317B4A116090
:1016C00006E067490968C968C868784A41681160D6
:1016D000704710B5044694F8490030B9206B01F00A
:1016E000FFFA204601F0FCFA15E094F849000128C1
:1016F00003D1204601F0F4FA0DE094F849000228E5
:1017000001D1012000E0002028B940F629625CA147
:1017100062A001F079FB10BD70B5054601F053F9E8
:1017200015B95248006800E028460446201DFFF71E
:101730007DFE78B9E06A00EB8000434951F8200053
:1017400040B994F82C10012088404B490968814326
:1017500049480160A06A18B104F11800FFF766FE5D
:1017600044480068401C434908604048006884427F
:1017700009D1211D3848FFF733FE4D480068401C51
:101780004B49086009E038480068401E3649086047
:101790002046FFF79EFFFFF787FF01F037F9344837
:1017A0000068C0B131480068844214D141480068E3
:1017B00008B9012000E0002028B940F2654230A1BC
:1017C00036A001F021FB4FF080502C490860BFF398
:1017D0004F8FBFF36F8F70BD2DE9F0414FF00008C0
:1017E0003448006800286BD133480068451C3248F3
:1017F0000560EDB91A480068006808B9012000E0EA
:10180000002028B940F6D9121DA124A001F0FCFA4D
:1018100013480768134800681149086011480760B9
:1018200026480068401C25490860FFF73DFF00BFBF
:101830001E48006885427BD300BF094800680068E5
:1018400008B901203EE03CE0C40B0020440E00201B
:10185000580E00206C0E0020800E0020940E0020F8
:10186000340000203800002040000020300000201C
:101870004C0000205C0000204800002004ED00E047
:101880002E2E5C2E2E5C4672656552544F535C734F
:1018900063725C7461736B732E6300004572726FC8
:1018A000723A25732C25640D0A00000060000020A8
:1018B0003C00002068000020440000205800002068
:1018C00043E0002020B14FF0FF30FE4908602EE0D9
:1018D000FD480068C068C4686668B54202D2F9482D
:1018E000066024E0201DFFF7A1FDA06A18B104F1F5
:1018F0001800FFF79BFD94F82C1001208840F34955
:1019000009680843F1490860E16A01EB8101F04A86
:1019100002EB8100211DFFF763FDEE49E06A0968D3
:10192000C96A884289D34FF0010886E700E000BF0A
:10193000E8480068C06A00EB8000E54951F82000E3
:10194000012801D94FF0010804E0E3480068401C79
:10195000E1490860E148006808B14FF001084046DD
:10196000BDE8F08170B500240026DD48006838B974
:101970004FF4FD62AFF2F801AFF2E00001F044FA7B
:1019800001F021F8D6480068401ED5490860084695
:10199000006800284FD1D348006800284BD024E0CD
:1019A000D148C068C46804F11800FFF73FFD201D4E
:1019B000FFF73CFD94F82C1001208840C3490968CA
:1019C0000843C2490860E16A01EB8101C04A02EBA9
:1019D0008100211DFFF704FDBE49E06A0968C96A5C
:1019E000884202D30120BD490860BF48006808B999
:1019F000012000E000200028D2D00CB1FFF754FEF7
:101A0000B548056865B100BFFFF7E6FE10B10120DB
:101A1000B24908606D1E002DF6D10020AE49086065
:101A2000AE48006838B101263007B0490860BFF3FE
:101A30004F8FBFF36F8F00F0E9FF304670BD2DE987
:101A4000F04105460E46AA480768A2480068001DF6
:101A5000FFF7ECFC50B99F48006890F82C1001206B
:101A600088409A490968814398480160681C38B9E0
:101A700036B198480168091D9E48FFF7B1FC1AE08D
:101A80007C19944800684460BC4207D291480168C0
:101A9000091D99480068FFF7AFFC0CE08D4801680C
:101AA000091D89480068FFF7A7FC86480068844242
:101AB00001D284480460BDE8F08189480068401C78
:101AC0008749086070472DE9F04704460F464FF0FC
:101AD00000093CB940F27942AFF25C21AFF24420F8
:101AE00001F092F90FB1012000E0002038B940F276
:101AF0007A42AFF27421AFF25C2001F085F97848A8
:101B0000006808B9012000E0002038B940F27B42AB
:101B1000AFF29421AFF27C2001F076F9FFF7CDFF10
:101B2000734806682068C5192068B04207D9206844
:101B3000A8420BD9B54209D94FF0010906E0206847
:101B4000A84201D8B54201D94FF001092560B9F189
:101B5000000F03D0A81B0021FFF771FFFFF702FF62
:101B60008046B8F1000F07D14FF080505F49086000
:101B7000BFF34F8FBFF36F8FBDE8F08770B504469A
:101B80000025BCB15648006808B9012000E00020DB
:101B900038B940F2CF42AFF21831AFF2003001F065
:101BA00033F9FFF78AFF00212046FFF748FFFFF7D0
:101BB000D9FE05463DB94FF080504C490860BFF34F
:101BC0004F8FBFF36F8F70BD2DE9F04107463E4642
:101BD0003EB940F2FB42AFF25831AFF2403001F073
:101BE00013F93C480068864201D100241EE000F051
:101BF000EAFE756900F00AFF33480068854203D0A9
:101C00003D480068854201D102240FE039488542F1
:101C100005D1B06A08B9032408E0022406E0374879
:101C2000854200D00DB9042400E001242046BDE81F
:101C3000F08170B5044600F0C6FE14B9254800686E
:101C400000E020460646F56A00F0E0FE284670BD3A
:101C50002DE9F041054600F009FF00BF5021EFF3E8
:101C6000118081F31188BFF34F8FBFF36F8F00BFD7
:101C7000044615B91748006800E028460746FE6A82
:101C800000BF84F3118800BF3046BDE8F0812DE924
:101C9000F04780460D464FF00009202D01D201206B
:101CA00000E0002038B94FF4B062AFF22C41AFF23F
:101CB000144001F0A9F8202D00D31F2500F083FE69
:101CC0001EE00000600000203400002048000020DA
:101CD000C40B0020300000205000002054000020E1
:101CE00068000020400000206C0E002004ED00E0A1
:101CF00044000020940E002038000020800E0020B8
:101D0000B8F1000F02D1FE48006800E040460446EA
:101D1000E66AAE4251D0B5420BD9F9480068844218
:101D20000DD0F7480068C06AA84208D84FF00109F2
:101D300005E0F3480068844201D14FF00109E76AE9
:101D4000E562A06900F0004010B9C5F12000A06173
:101D500007EB8701EB4A02EB81016069884201D100
:101D6000012000E00020E0B1201DFFF75FFB30B94B
:101D70000120B840E44909688143E348016094F8D0
:101D80002C1001208840E04909680843DE490860BA
:101D9000E16A01EB8101DB4A02EB8100211DFFF7C3
:101DA0001FFBB9F1000F07D04FF08050D7490860F2
:101DB000BFF34F8FBFF36F8F00BF00F027FEBDE86A
:101DC000F08710B5D248006818B10120D1490860E9
:101DD0002FE00020CF490860CB480068B0FA80F0BF
:101DE000C0F11F0404EB8400C64951F8200008B17B
:101DF000012000E0002038B940F6F622AFF2805111
:101E0000AFF2685001F000F804EB8401BD4A02EB28
:101E1000810041684968416000F1080142688A42D6
:101E200002D14168496841604168C968B44A11609B
:101E300000BF10BD70B5054600F0C5FD15B9B0482E
:101E4000006800E028460446201DFFF7EFFA78B945
:101E5000E06A00EB8000AB4951F8200040B994F8EB
:101E60002C1001208840A84909688143A6480160D8
:101E7000A06A18B104F11800FFF7D8FA211DA6488E
:101E8000FFF7AEFA00F0C2FDA448006828B100F0E8
:101E90009AFDFFF709FC00F0B9FD994800688442FB
:101EA00026D19E480068B8B19948006808B9012059
:101EB00000E0002038B940F25762AFF23C61AFF267
:101EC000246000F0A1FF4FF0805090490860BFF3FC
:101ED0004F8FBFF36F8F0BE08F4800689049096800
:101EE000884203D100208649086001E0FFF769FFBE
:101EF00070BD70B5054600262C463DB940F28162A2
:101F0000AFF28461AFF26C6000F07EFF82496069DD
:101F1000884201D1012000E0002070B18149A06A0F
:101F2000884201D1012000E0002030B9A06A08B940
:101F3000012000E0002000B10126304670BD70B5E0
:101F400005462C463DB940F2AB62AFF2CC61AFF230
:101F5000B46000F059FF74B36948006884422AD025
:101F600000F031FD2046FFF7C4FF10B3201DFFF73E
:101F70005DFA94F82C1001208840634909680843F1
:101F800061490860E16A01EB81015E4A02EB810070
:101F9000211DFFF725FA5A49E06A0968C96A884293
:101FA00007D34FF0805059490860BFF34F8FBFF3FC
:101FB0006F8F00F02BFD70BD2DE9F0410646002724
:101FC00034463EB940F2E262AFF24C71AFF2347087
:101FD00000F01AFF00F04AFD00BF5021EFF311801E
:101FE00081F31188BFF34F8FBFF36F8F00BF05469A
:101FF0002046FFF77EFF20B345480068E0B940491E
:10200000E06A0968C96A884200D30127201DFFF7EA
:102010000DFA94F82C10012088403B4909680843C8
:1020200039490860E16A01EB8101364A02EB81001F
:10203000211DFFF7D5F904E004F118013948FFF735
:10204000CFF900BF85F3118800BF3846BDE8F081A5
:1020500070B523E0FFF731FD3348006808B901206F
:1020600000E000200546FFF77DFCBDB900F0ABFCA9
:102070002D48C068C468201DFFF7D8F928480068BB
:10208000401E2749086029480068401E274908600B
:1020900000F0BCFC2046FFF71CFB00BF2348006893
:1020A0000028D7D170BD00BFFFF7D2FF15480068E8
:1020B0000128F9D94FF0805014490860BFF34F8FC1
:1020C000BFF36F8FF0E710B586B000200590049045
:1020D00003AA04A905A8FEF7D5FF0022DDE9041034
:1020E0001346CDE90021029011A11348039AFFF78E
:1020F0006CFA124908600846006808B3012420E021
:1021000030000020C40B00204800002004ED00E057
:102110006800002054000020940E00204C00002095
:10212000400000206C0E0020800E00203C000020AB
:1021300049444C4500000000A7200008640000202E
:102140000024012C15D100BF502080F31188BFF36B
:102150004F8FBFF36F8F00BF4FF0FF30FE49086015
:102160000120FE4908600020FD49086000F0D4FB12
:102170000DE0601C08B1012000E0002038B940F2F9
:102180008472AFF60411AFF6EC0000F03DFE06B02D
:1021900010BD10B500BF502080F31188BFF34F8FE2
:1021A000BFF36F8F00BF0020EC49086000F0FAFB1E
:1021B00010BDEB490868704770B500F057FC00256A
:1021C000E7480468204670BDE6480068704770B56F
:1021D000044614B9E448006800E0204605463DB9CD
:1021E00040F68C02AFF66811AFF6501000F00CFE0E
:1021F00005F1340070BD70B504460D463CB940F69B
:102200000632AFF68411AFF66C1000F0FDFDD64833
:10221000016818312046FFF7EFF801212846FFF743
:102220000EFC70BD70B504460D4616463CB940F62E
:102230001732AFF6B411AFF69C1000F0E5FDCB48B5
:10224000006808B1012000E0002038B940F61B32D8
:10225000AFF6D411AFF6BC1000F0D6FD45F000404B
:10226000C14909688861C048016818312046FFF7F4
:10227000B7F801213046FFF7E2FB70BD70B50646A6
:10228000F068C4683CB940F66132AFF60C21AFF695
:10229000F41000F0B9FD04F11800FFF7C7F8B348D7
:1022A0000068A8B9201DFFF7C1F894F82C10012090
:1022B0008840AF4909680843AD490860E16A01EB0D
:1022C0008101AC4A02EB8100211DFFF789F804E08F
:1022D00004F11801A848FFF783F8A349E06A0968E8
:1022E000C96A884204D901250120A449086000E098
:1022F0000025284670BD2DE9F04105460F469B4854
:10230000006808B1012000E0002038B940F6993299
:10231000AFF69421AFF67C2000F076FD47F0004048
:102320002860EC683CB940F6A132AFF6AC21AFF6BC
:10233000942000F069FD2846FFF778F8201DFFF78C
:1023400075F894F82C1001208840894909680843E1
:1023500087490860E16A01EB8101864A02EB81004E
:10236000211DFFF73DF88049E06A0968C96A884283
:1023700004D9012601208149086000E0002630468A
:10238000BDE8F08110B504463CB940F6C132AFF665
:102390001031AFF6F82000F037FD79480068206072
:1023A0006F480068606010BD2DE9F04104460D469D
:1023B0003CB940F6CB32AFF63831AFF6203000F002
:1023C00023FD3DB940F6CC32AFF64C31AFF6343098
:1023D00000F01AFD00F0F7FA614807682868401C11
:1023E00008B9002619E0664920680968884204D0C7
:1023F0006068B84201D801260FE06068381A296881
:10240000884209D228686168791A401A28602046F3
:10241000FFF7B8FF002600E0012600F0F7FA30468B
:10242000BDE8F08101205549086070474B490968B3
:1024300009B9012005E04D49096809B9022000E009
:102440000020704748490968886947490968C96A8E
:10245000C1F12001444A12689161704770B5064687
:102460000D4600F0B0FA40480068406C88B9012081
:102470003D49096881F848005DB101212846FFF710
:10248000DEFA4FF080503F490860BFF34F8FBFF333
:102490006F8F00F0BBFA00F096FA33480068446C86
:1024A0004CB126B1002030490968486403E0601E41
:1024B0002D490968486400202B49096881F84800C3
:1024C00000F0A4FA204670BD2DE9F0410746884689
:1024D00014461D4600F077FA2348006890F848003B
:1024E000022818D02049096801F14400496CB94319
:1024F000016001201C49096881F848005DB1012193
:102500002846FFF79CFA4FF080501E490860BFF341
:102510004F8FBFF36F8F00F079FA00F054FA1CB1BF
:1025200011480068406C20600F48006890F848002F
:10253000012801D1002608E00B49096801F1440097
:10254000496C21EA0801016001260020064909685A
:1025500081F8480018E00000600000204C000020D6
:1025600044000020400000203000002068000020CF
:1025700048000020C40B00206C0E002054000020F6
:102580005800002004ED00E000F040FA3046BDE8BD
:10259000F0812DE9F04706460D46174698464FF064
:1025A000010A3EB941F2FD02AFF62C51AFF61450CC
:1025B00000F02AFC344600F006FAB8F1000F02D011
:1025C000606CC8F8000094F84890022084F8480035
:1025D000052F17D2DFE807F01503070B0D00606C1D
:1025E000284360640EE0606C401C60640AE065642F
:1025F00008E0B9F1020F01D0656401E04FF0000A74
:1026000000E000BF00BFB9F1010F30D1201DFEF77F
:102610000DFF94F82C10012088409E49096808435A
:102620009C490860E16A01EB81019B4A02EB810051
:10263000211DFEF7D5FEA06A08B9012000E00020A8
:1026400038B941F23512AFF6C851AFF6B05000F0CC
:10265000DBFB9249E06A0968C96A884207D94FF0F2
:1026600080508F490860BFF34F8FBFF36F8F00F02A
:10267000CDF95046BDE8F0872DE9F84F07460E46E4
:1026800090469946DDF828B0012000903FB941F20C
:102690006812AFF61461AFF6FC5000F0B5FB00F025
:1026A000E5F93C4600BF5021EFF3118081F311881A
:1026B000BFF34F8FBFF36F8F00BF0546B9F1000F17
:1026C00002D0606CC9F8000094F848A0022084F899
:1026D0004800B8F1050F17D2DFE808F01503070B23
:1026E0000D00606C304360640EE0606C401C606400
:1026F0000AE0666408E0BAF1020F01D0666401E006
:102700000020009000E000BF00BFBAF1010F3BD1F4
:10271000A06A08B9012000E0002038B941F2AF12E8
:10272000AFF6A461AFF68C6000F06EFB5D48006808
:10273000A8B9201DFEF77AFE94F82C1001208840DD
:1027400054490968084353490860E16A01EB810173
:10275000514A02EB8100211DFEF742FE04E004F124
:1027600018015148FEF73CFE4C49E06A0968C96A05
:10277000884209D9BBF1000F03D00120CBF800003B
:1027800002E001204949086000BF85F3118800BFBD
:102790000098BDE8F88F2DE9F04105460F463DB998
:1027A00041F2E312AFF62871AFF6107000F02CFB87
:1027B00000F05CF92C4600BF5021EFF3118081F34B
:1027C0001188BFF34F8FBFF36F8F00BF064694F899
:1027D0004880022084F84800606C401C6064B8F1B6
:1027E000010F38D1A06A08B9012000E0002038B9F3
:1027F00041F20922AFF67871AFF6607000F004FB89
:1028000028480068A8B9201DFEF710FE94F82C1087
:10281000012088401F49096808431E490860E16A91
:1028200001EB81011C4A02EB8100211DFEF7D8FD5E
:1028300004E004F118011C48FEF7D2FD1749E06AD4
:102840000968C96A884206D917B10120386002E0D8
:1028500001201649086000BF86F3118800BFBDE85B
:10286000F08170B5054615B90C48006800E02846AF
:10287000064600F0A8F896F84800022804D1002087
:1028800086F84800012400E0002400F0BFF820464C
:1028900070BD000048000020C40B00203000002064
:1028A00004ED00E0680000206C0E002054000020C1
:1028B00084480068401C08B9012000E0002020B9CD
:1028C000F42281A18AA000F09FFA00BF502080F37B
:1028D0001188BFF34F8FBFF36F8F00BF00BFFEE7BC
:1028E000001F4FF080730360001F21F0010303609D
:1028F000001F834B03601438026020387047814802
:1029000000684FF47A71B0FBF1F0401E4FF0E02107
:1029100048610720086170471CB57B48014609786B
:102920000191FF21024611700146097800919DF83E
:10293000001001F05001754A11700721744A1160AE
:1029400009E073490968491E714A11609DF8001039
:102950004906090E00919DF8001001F080018029C0
:10296000EFD06B4909680902694A1160114609886C
:1029700001F4E0611160644A0199117065480068D2
:1029800040F47000634908600846006840F07040F9
:102990000860FFF7B4FF00204A490860FDF7E6FB36
:1029A00000201CBD10B547480068B0F57A7F01D102
:1029B000012000E0002028B94FF4B57242A14CA0DC
:1029C00000F022FA10BD10B500BF502080F311882E
:1029D000BFF34F8FBFF36F8F00BF3A480068401CB2
:1029E000384908600846006801280ED149481C385B
:1029F0000068C0B208B9012000E0002028B94FF4F7
:102A0000BD7231A13AA000F0FFF910BD10B52D48FC
:102A1000006828B940F281122BA135A000F0F4F92A
:102A200028480068401E274908600846006820B909
:102A3000002080F3118800BF00BF10BD10B500BF9B
:102A4000502080F31188BFF34F8FBFF36F8F00BF0B
:102A5000FEF7C2FE20B14FF080502E491C390860AD
:102A600000BF002080F3118800BF10BD70B5FDF7D6
:102A7000B3FB0546102D11D305F1E02090F8F0438B
:102A800022480078844201DB012000E0002028B9C0
:102A90004FF42A720CA116A000F0B6F91D481438A4
:102AA000006800F4E0601A490968884201D80120F2
:102AB00000E0002028B94FF42E7203A10CA000F012
:102AC000A3F970BD6C0000202E2E5C2E2E5C467289
:102AD000656552544F535C706F72745C5256445328
:102AE0005C41524D5F434D335C706F72742E6300D6
:102AF0004572726F723A25732C25640D0A0000002E
:102B0000B12800080000002000E400E07000002070
:102B10007400002020ED00E010B50146924800E06E
:102B2000006803688B42FBD30246436813448B4220
:102B300004D143684C682344436001460A464B680D
:102B400013440468A34211D1884C03682468A3424B
:102B500008D04B680468646823444B6003681B68B2
:102B60000B6005E0814B1B680B6001E003680B60A4
:102B7000884200D0016010BD30B54FF410437C484E
:102B800000F007042CB1C01D20F00700784C041B96
:102B90001B1B0246744C22600024734D6C60D018DD
:102BA000083820F00700714C206000246F4D2D681C
:102BB0006C606E4D2D682C601146441A4C606B4C55
:102BC00024680C606B4D4C682C606B4D4C682C601D
:102BD0004FF00044694D2C6030BD2DE9F0410446B2
:102BE0004FF00008FEF769FF6048006808B9FFF77A
:102BF000C3FF62480068204000285FD1A4B10834B8
:102C000004F0070080B104F00700C0F1080004449C
:102C100004F0070008B9012000E0002020B9BF221D
:102C200057A161A000F0F0F8002C47D0524800688E
:102C3000844243D84C4E3046056801E02E462D684C
:102C40006868A04202D228680028F7D14748006887
:102C5000854233D0306800F1080828683060686821
:102C6000001B102813D92F1907F0070008B90120FD
:102C700000E0002020B9EC2241A14BA000F0C4F8F4
:102C80006868001B78606C603846FFF745FF3A497A
:102C900068680968081A38490860084600683549B4
:102CA0000968884203D234480068324908603349D1
:102CB000686809680843686000202860FEF752FED3
:102CC00008F0070008B9012000E0002028B94FF4FF
:102CD00096722BA134A000F097F84046BDE8F08131
:102CE00070B506463546002E35D0083D2C462349A2
:102CF00060680968084008B1012000E0002028B998
:102D00004FF4A0721EA128A000F07EF8206808B938
:102D1000012000E0002028B940F2411218A122A0B1
:102D200000F072F8154960680968084098B1206899
:102D300088B912496068096888436060FEF7BDFE83
:102D40000D496068096808440B4908602046FFF790
:102D5000E3FEFEF707FE70BD0748006870470548B0
:102D60000068704770470000780000208000002055
:102D7000A80E002088000020840000208C00002085
:102D80002E2E5C2E2E5C4672656552544F535C703D
:102D90006F72745C4D656D4D616E675C68656170E6
:102DA0005F342E63000000004572726F723A257323
:102DB0002C25640D0A00000030B50B4601460020AA
:102DC0002022012409E021FA02F59D4205D303FAED
:102DD00002F5491B04FA02F52844151EA2F101026E
:102DE000F1DC30BD064C074D06E0E06840F0010321
:102DF00094E8070098471034AC42F6D3FDF79CF9ED
:102E000000300008203000080FB4054B10B503A9AE
:102E1000044A029800F018F810BC5DF814FB00009A
:102E20007F1300089000002002E008C8121F08C1AC
:102E3000002AFAD170477047002001E001C1121F3B
:102E4000002AFBD1704700002DE9FF4F8BB09A4656
:102E50000F460546002606E025280BD052460D9960
:102E600090476D1C761C28780028F5D10FB03046AD
:102E7000BDE8F08F0024A0460122604900E0044331
:102E800015F8013F203B02FA03F00842F7D12878F9
:102E90002E2817D115F8010F44F004042A280ED06B
:102EA0006FF02F022878A0F1300109290AD808EB29
:102EB000880102EB410100EB01086D1CF2E757F8B5
:102EC000048B6D1C287869283ED006DC0028CDD004
:102ED00063280BD0642804D136E0732810D07528FD
:102EE0004BD052460D999047761C85E017F8040B9D
:102EF0008DF8000000208DF80100E946012003E074
:102F000057F8049B4FF0FF3061074FF0000401D4E5
:102F10000AE0641C44450DDA8442FADB19F8041017
:102F20000029F6D106E0641C8442FCDB19F8041089
:102F30000029F8D1264404E019F8010B52460D99F6
:102F40009047641EF8D257E001CF4FF00A0B0028DB
:102F500002DA40422D2102E0210504D52B218DF813
:102F60002410012103E0E10705D02021F7E70DF14E
:102F7000200908910CE00021F9E701CF4FF00A0B7E
:102F8000F9E75946FFF718FF01F1300209F8012D62
:102F90000028F6D1ADEB090000F1200B600701D449
:102FA0004FF00108D84502DDA8EB0B0000E000203F
:102FB0008046002406E009A85246005D0D9990471E
:102FC000641C761C08988442F5DB04E030205246ED
:102FD0000D999047761CB8F10001A8F10108F5DCC5
:102FE00005E019F8010B52460D999047761CBBF18C
:102FF0000001ABF1010BF4DC6D1C34E70928010082
:10300000203000080000002094000000282E000856
:10301000B43000089400002014A20000382E0008EC
:1030200000A24A04000000000000000001020304A6
:10303000060708090000000001020304010203045E
:10304000060708090204060800000000000000004E
:103050000000000000000000000000000000000070
:103060000000000000000000000000000000000060
:103070000000000000000000000000000000000050
:10308000000000000000000000000000AAAAAAAA98
:103090000000000000000000000000000000000030
:1030A0000000000000000000000000000000000020
:0430B000000000001C
:0400000508000131BD
:00000001FF
