:020000040800F2
:1000000080970020E1010008FD110008FF110008A1
:1000100003120008071200080B120008000000007D
:10002000000000000000000000000000490100087E
:100030000F120008000000008D01000811120008D6
:10004000FB010008FB010008FB010008FB010008A0
:10005000FB010008FB010008FB010008FB01000890
:10006000FB010008FB010008FB010008FB01000880
:10007000FB010008FB010008FB010008FB01000870
:10008000FB010008FB010008FB010008FB01000860
:10009000FB010008FB010008FB010008FB01000850
:1000A000FB010008FB010008FB010008FB01000840
:1000B000FB010008FB010008FB010008FB01000830
:1000C000FB010008FB010008FB010008FB01000820
:1000D000FB010008FB010008FB010008FB01000810
:1000E000FB010008FB010008FB010008FB01000800
:1000F000FB010008FB010008FB010008FB010008F0
:10010000FB010008FB010008FB010008FB010008DF
:10011000FB010008FB010008FB010008FB010008CF
:10012000FB010008FB010008FB010008FB010008BF
:10013000DFF810D002F018FE0048004791100008C8
:10014000AFF3008080970020224B19680868B0E860
:10015000F00F80F30988BFF36F8F4FF0000080F33A
:1001600011884EF00D0E7047000000000648006830
:10017000006880F3088862B661B6BFF34F8FBFF3A3
:100180006F8F00DF00BF00BF08ED00E0EFF30980D4
:10019000BFF36F8F0F4B1A6820E9F00F106008B59E
:1001A0004FF0500080F31188BFF34F8FBFF36F8F74
:1001B00001F0E0FD4FF0000080F31188BDE8084039
:1001C00019680868B0E8F00F80F30988BFF36F8FF3
:1001D000704700BF34000020EFF305807047000037
:1001E0000648804706480047FEE7FEE7FEE7FEE7D1
:1001F000FEE7FEE7FEE7FEE7FEE7FEE7E3020008B4
:10020000310100080CB50020019000906C48006896
:1002100040F480306A49086000BF6948006800F413
:10022000003000900198401C0190009818B9019886
:10023000B0F5A06FF1D16248006800F4003010B151
:100240000120009001E0002000900098012843D197
:100250005C48006840F010005A4908600846006891
:1002600020F0030008600846006840F002000860C3
:10027000534840685249486008464068486008460C
:10028000406840F4806048600846406820F47C1074
:1002900048600846406840F4E81048600846006836
:1002A00040F08070086000BF4548006800F00070B2
:1002B0000028F9D04248406820F0030040494860D7
:1002C0000846406840F00200486000BF3C48406873
:1002D00000F00C000828F9D10CBD10B5FFF792FF13
:1002E00010BD10B53648006840F001003449086080
:1002F000084640683449084031494860084600686B
:10030000324908402E4908600846006820F48020E1
:1003100008600846406820F4FE0048604FF41F0063
:100320008860FFF7DAFF4FF000602949086010BDD0
:1003300010B5002100200022214B5B6803F00C0166
:1003400021B1042906D0082928D107E0214B224CED
:10035000236027E01F4B204C236023E0184B5B6891
:1003600003F47010164B5B6803F48032022303EB36
:10037000904022B9194B4343174C23600DE0104BBA
:100380005B6803F4003323B1144B4343124C2360E6
:1003900003E0104B4343104C236003E00D4B0E4C25
:1003A000236000BF00BF064B5B68C3F303130C4C14
:1003B000E15C094B1B68CB40074C236010BD00007B
:1003C00000100240002002400000FFF8FFFFF6FE90
:1003D00008ED00E000127A000000002000093D0056
:1003E0000400002031490143314A1160704770B563
:1003F000002100230F22C47804B32D4C246804F498
:10040000E064C4F5E064210AC1F10403CA40447801
:1004100004FA03F18478144021430901254C06783D
:10042000A155047804F01F050124AC4005786D1136
:10043000AD0005F1E025C5F8004109E0047804F0BD
:100440001F050124AC401C4D0678761145F8264066
:1004500070BD1A4A0A400243154B1B1F1A607047B1
:1004600039B1134A121D12680243114B1B1D1A6049
:1004700006E00F4A121D126882430D4B1B1D1A60C5
:100480007047042808D14FF0E021096941F00401C8
:100490004FF0E022116107E04FF0E021096921F0FF
:1004A00004014FF0E0221161704700000000FA05DE
:1004B0000CED00E000E400E080E100E080FFFF1FC1
:1004C00010B50446CC48844208D10121042000F034
:1004D0002DFB0021042000F029FB46E0C7488442A0
:1004E00008D10121082000F021FB0021082000F0A4
:1004F0001DFB3AE0C248844208D10121102000F0DF
:1005000015FB0021102000F011FB2EE0BD488442B5
:1005100008D10121202000F009FB0021202000F05B
:1005200005FB22E0B848844208D10121402000F0B8
:10053000FDFA0021402000F0F9FA16E0B3488442A9
:1005400008D10121802000F0F1FA0021802000F084
:10055000EDFA0AE0AE48844207D10121801500F08F
:10056000E5FA0021A01500F0E1FA10BD10B5012157
:10057000084600F0DBFA0021012000F0D7FA10BD98
:100580002DE9F0410246002500260020002300242A
:10059000002791F803C00CF00F0591F803C00CF090
:1005A000100CBCF1000F03D091F802C04CEA050515
:1005B00091F800C0BCF1000F31D0146800202BE08E
:1005C0004FF0010C0CFA00F3B1F800C00CEA03067E
:1005D0009E4220D183004FF00F0C0CFA03F7BC436E
:1005E00005FA03FC4CEA040491F803C0BCF1280F9F
:1005F00006D14FF0010C0CFA00FCC2F814C00AE05E
:1006000091F803C0BCF1480F05D14FF0010C0CFA72
:1006100000FCC2F810C0401C0828D1D31460B1F807
:1006200000C0BCF1FF0F34DD546800202EE000F163
:10063000080C4FF0010808FA0CF3B1F800C00CEAFE
:1006400003069E4221D183004FF00F0C0CFA03F7F2
:10065000BC4305FA03FC4CEA040491F803C0BCF166
:10066000280F05D100F1080C08FA0CF8C2F8148024
:1006700091F803C0BCF1480F07D100F1080C4FF00E
:10068000010808FA0CF8C2F81080401C0828CED3E4
:100690005460BDE8F0814FF6FF7101800221817046
:1006A0000421C17070470246002093680B400BB1D3
:1006B000012000E0002070470146886880B2704742
:1006C00002460020D3680B400BB1012000E000205F
:1006D00070470146C86880B2704701617047416148
:1006E00070470AB1016100E041617047C160704725
:1006F0004FF480320A43826181618261826982693A
:10070000704702460020434B18684FF6807318402C
:1007100040EA021008433F4B186070473E49C861E9
:100720007047F0B50A46002300240021002500F0A0
:100730000046B6F1004F02D1364EF16901E0354E68
:100740007168C0F3034583B200F44016B6F5401F4C
:1007500008D121F070612F4E766826F070662D4F1B
:100760007E6012E000F48016B6F5801F06D10326E5
:1007700006FA05F4A14341F0706106E0460D36012A
:1007800003FA06F6B14341F0706122B1460D36011D
:1007900003FA06F6314300F00046B6F1004F02D1ED
:1007A0001C4EF16101E01B4E7160F0BD30B50022BE
:1007B0008B071C0F0F2303FA04F2164B08338C101F
:1007C00053F824309343134C08348D1044F82530EB
:1007D00023468C1053F824308C07240F00FA04F4BD
:1007E00023430C4C08348D1044F8253030BD0A49A1
:1007F000DC3108607047000000080140000C014037
:10080000001001400014014000180140001C01408C
:10081000002001400000014000002042DF48006845
:1008200040F00100DD49086008464068DC490840A6
:10083000DA49486008460068DA490840D749086044
:100840000846006820F4802008600846406820F4CC
:10085000FE0048604FF41F0088607047CF49096868
:1008600021F48031CD4A11601146096821F48021BC
:100870001160B0F5803F03D0B0F5802F0ED106E0B7
:10088000C649096841F48031C44A116007E0C34990
:10089000096841F4A021C14A116000E000BF00BF17
:1008A000704710B501460022002300204A11012A9A
:1008B00002D1BA4C236806E0022A02D1B74C236A5F
:1008C00001E0B64C636A01F01F02012494401C4011
:1008D0000CB1012000E0002010BD38B500200090D0
:1008E0000024002500BF3120FFF7DBFF05460098FC
:1008F000401C00900098B0F5A06F01D0002DF2D000
:100900003120FFF7CEFF08B1012400E0002420468B
:1009100038BD01460020A14A106820F0F80040EAE6
:10092000C10010607047A04908607047024600206F
:100930009A4B586820F47C1042EA01031843974B05
:100940005860704798490866704701460020934AEE
:10095000506820F003000843506070478F4840689B
:1009600000F00C007047014600208C4A506820F0CF
:10097000F00008435060704701460020874A5068E5
:1009800020F4E06008435060704701460020834A2D
:10099000506820F4605040EAC1005060704729B1AF
:1009A0007E4A527A02437D4B5A7204E07B4A527A65
:1009B00082437A4B5A7270477B49D831086070473E
:1009C00001460020754A506820F4404008435060BA
:1009D00070470021714A20321170704A82F820104D
:1009E000012802D004280AD104E001216B4A2032F8
:1009F000117005E00521694A2032117000E000BF46
:100A000000BF70476949086070476449096A01433B
:100A1000624A11627047654944390860704730B5D1
:100A200000210022002400235C4D6D6805F00C01BC
:100A300021B1042905D0082923D105E05C4D0560CA
:100A400022E05B4D05601FE0544D6D6805F47012A7
:100A5000524D6D6805F48034022505EB92421CB9B5
:100A6000544D554305600BE04C4D6D6805F4003561
:100A70001DB1504D5543056002E04D4D5543056095
:100A800002E04B4D056000BF00BF444D6D6805F0AE
:100A9000F0010909484D6B5C0568DD4045603F4D3C
:100AA0006D6805F4E061090A434D6B5C4568DD4003
:100AB00085603A4D6D6805F46051C90A3E4D6B5C26
:100AC0004568DD40C560354D6D6805F44041890BD2
:100AD0003A4D6B5CC568B5FBF3F5056130BD29B1D6
:100AE0002E4A526902432D4B5A6104E02B4A526947
:100AF00082432A4B5A61704729B1284A92690243BE
:100B0000264B9A6104E0254A92698243234B9A61FD
:100B1000704729B1214AD2690243204BDA6104E0CF
:100B20001E4AD26982431D4BDA61704729B11B4AC4
:100B3000D2680243194BDA6004E0184AD268824353
:100B4000164BDA60704729B1144A12690243134BFD
:100B50001A6104E0114A12698243104B1A6170470E
:100B600012494039086070470F49C86470470B4903
:100B7000C87170470948406A40F080700749486270
:100B8000704701460020054A92680A400AB10120D8
:100B900000E0002070470149887270470010024051
:100BA0000000FFF8FFFFF6FE0000424280044242D0
:100BB00000127A0000093D001400002024000020EB
:100BC00010B50446FB48844209D101218803FFF790
:100BD000ADFF00214FF48040FFF7A8FF32E0F64858
:100BE000844209D101214804FFF7ADFF00214FF4F1
:100BF0000030FFF7A8FF25E0F048844209D1012129
:100C00008804FFF7A0FF00214FF48020FFF79BFF2F
:100C100018E0EB48844209D10121C804FFF793FF93
:100C200000214FF40020FFF78EFF0BE0E5488442DF
:100C300008D101210805FFF786FF00214FF480103D
:100C4000FFF781FF10BD2DE9F04786B005460E463F
:100C50000024A24600BFA1460027B08900B100BF12
:100C60002F462C8A4CF6FF700440F08804432C82F7
:100C7000AC894EF6F3100440B0883189084371897D
:100C800008430443AC81AC8A4FF6FF400440B0896E
:100C90000443AC8201A8FFF7C2FEC648874202D1D6
:100CA000DDF810A001E0DDF80CA0A88900F40040F8
:100CB00040B10AEBCA0000EB0A1031684900B0FBF2
:100CC000F1F807E00AEBCA0000EB0A10316889006E
:100CD000B0FBF1F86420B8FBF0F0040120096421B6
:100CE00001FB1089A88900F4004040B1322000EBDC
:100CF000C900B0FBF1F000F00700044308E0322027
:100D000000EB09106421B0FBF1F000F00F00044388
:100D10002C8106B0BDE8F0874FF416510160002128
:100D20008180C18001810C21418100218181704736
:100D300010B502460020108A4FF2FF0318400B88BE
:100D40004C8823438C882343CC8823431843108248
:100D500010BD0021018041808180C180704721B198
:100D6000828942F40052828104E082894DF6FF7349
:100D70001A4082817047F0B5034600240026002502
:100D8000002040F66A17B94200D100BF1846C1F3EF
:100D9000421401F01F06012707FA06F5012C01D1C4
:100DA0000C3004E0022C01D1103000E014301AB1F4
:100DB00007682F43076002E00768AF430760F0BD94
:100DC0001AB1838A0B43838202E0838A8B43838236
:100DD0007047028A4FF6F0731A400282028A0A4371
:100DE0000282704782894FF2FF731A4082818289A2
:100DF0000A438281704721B1828942F002028281D6
:100E000004E082894FF6FD731A4082817047028A9E
:100E10004FF6DF731A400282028A0A430282704749
:100E200021B1028A42F48042028204E0028A4BF637
:100E3000FF731A4002827047C1F308028280704734
:100E400001468888C0F308007047818941F001019C
:100E500081817047028BD2B20283028B42EA012267
:100E600002837047028B02F47F420283028B0A43A3
:100E70000283704721B1828A42F02002828204E01C
:100E8000828A4FF6DF731A408282704721B1828ACC
:100E900042F01002828204E0828A4FF6EF731A4019
:100EA0008282704721B1828A42F00802828204E085
:100EB000828A4FF6F7731A408282704721B1828985
:100EC00042F40042828103E08289C2F30E028281F1
:100ED000704721B1828A42F40062828204E0828AF1
:100EE0004FF2FF731A4082827047828A4FF6FB737B
:100EF0001A408282828A0A438282704721B1828AA2
:100F000042F00202828204E0828A4FF6FD731A40A8
:100F10008282704702460020B1F5007F00D100BFF9
:100F200013880B400BB1012000E00020704701F452
:100F30000072B2F5007F00D100BFCA430280704743
:100F400070B50246002400230025002040F66A16F2
:100F5000B14200D100BFC1F3421501F01F030126C9
:100F600006FA03F3012D02D19689334006E0022DE3
:100F700002D1168A334001E0968A33400C120126D2
:100F800006FA04F41688344013B10CB1012000E0D5
:100F9000002070BD10B50022002340F66A14A14263
:100FA00000D100BF0A1201249440A3B2DC430480A4
:100FB00010BD0000003801400044004000480040DF
:100FC000004C00400050004014E001203E49086001
:100FD0004FF4FA7000F0ACFD3CA001F0D7FE012008
:100FE0003949091F08604FF4FA7000F0A1FD3EA0D6
:100FF00001F0CCFEE9E714E02020334908604FF40B
:10100000FA7000F095FD40A001F0C0FE20202E49AE
:10101000091F08604FF4FA7000F08AFD41A001F04A
:10102000B5FEE9E71CB5012401F08FFC454802211B
:1010300000230A02CDE9001043A1464800F0F7FA68
:101040000446012C02D144A001F0A0FE494803212E
:1010500000234FF40072CDE9001047A1494800F089
:10106000E6FA0446012C02D147A001F08FFE4D485C
:10107000006800F02AFB01F08BFC1CBD10B54FF49A
:101080004070FFF7AFF900F0CBF800F00CF910BD9D
:101090001CB50124FFF7F2FF43A001F077FE4148A1
:1010A000012100234A02CDE900104FA1524800F06F
:1010B000BEFA0446012C02D100F0DEFF02E04FF040
:1010C000FF301CBD00BFFEE7140C01404C4544320C
:1010D0005F5461736B2052756E6E696E672C4C4560
:1010E00044325F4F4E0D0A004C4544325F546173E9
:1010F0006B2052756E6E696E672C4C4544325F4FA3
:1011000046460D0A000000004C4544315F546173AF
:101110006B2052756E6E696E672C4C4544315F4F83
:101120004E0D0A004C4544315F5461736B2052757B
:101130006E6E696E672C4C4544315F4F46460D0A12
:10114000000000002C0000204C4544315F546173C6
:101150006B000000F70F0008B4B4BDA84C45443143
:101160005F5461736BC8CECEF1B3C9B9A6210D0A25
:1011700000000000300000204C4544325F54617391
:101180006B000000C90F0008B4B4BDA84C45443240
:101190005F5461736BC8CECEF1B3C9B9A6210D0AF5
:1011A0000000000028000020D5E2CAC7D2BBB8F674
:1011B0005BD2B0BBF05D2D53544D3332C8ABCFB5CD
:1011C000C1D0BFAAB7A2B0E52D4672656552544F93
:1011D000532DB6AFCCACB4B4BDA8B6E0C8CECEF1FA
:1011E000CAB5D1E9210D0A004170705461736B4397
:1011F000726561746500000025100008704700BF2B
:10120000FEE700BFFEE700BFFEE700BFFEE7704756
:1012100010B501F0D5F8012801D001F0D1FB10BDC7
:1012200008B501210820FFF767FC2020ADF8000079
:1012300010208DF8030003208DF8020069460F4846
:10124000FFF79EF90120ADF8000069460B48FFF753
:1012500097F90220ADF8000069460848FFF790F9B9
:1012600020210648FFF739FA01210448FFF735FA33
:1012700002210248FFF731FA08BD0000000C0140CE
:1012800008B54FF4A060FFF7ADF825208DF80000F9
:1012900001208DF801008DF802008DF803006846EA
:1012A000FFF7A5F808BD00B585B001210420FFF7C0
:1012B00023FC01218803FFF71FFC4FF40070ADF8F9
:1012C000100018208DF8130003208DF8120004A9D7
:1012D0005248FFF755F94FF48060ADF81000042034
:1012E0008DF8130004A94D48FFF74AF94FF4E13097
:1012F00000900020ADF80400ADF80600ADF808003D
:10130000ADF80C000C20ADF80A0069464448FFF720
:101310009AFCFFF7B5FF012240F225514048FFF744
:101320002AFD01213E48FFF71AFD05B000BD70B54A
:1013300004460D4629462046FFF77EFD00BF80216A
:101340002046FFF7E7FD0028F9D070BD2DE9F041F8
:1013500007460D461646002405E0295D3846FFF78E
:10136000E6FF601CC4B2B442F7DB00BF4021384640
:10137000FFF7D0FD0028F9D0BDE8F08170B5064632
:101380000C46002500BF615D3046FFF7D0FF6D1CA5
:10139000605D0028F7D100BF40213046FFF7BAFD5D
:1013A0000028F9D070BD2DE9F04105460C46260A0B
:1013B000E7B231462846FFF73FFD00BF80212846AF
:1013C000FFF7A8FD0028F9D039462846FFF734FD7D
:1013D00000BF80212846FFF79DFD0028F9D0BDE819
:1013E000F08170B504460D46E1B20D48FFF724FDCB
:1013F00000BF80210A48FFF78DFD0028F9D0204664
:1014000070BD10B5044600BF20210548FFF782FDDE
:101410000028F9D00248FFF713FD10BD0008014075
:101420000038014000F1080141604FF0FF31816058
:1014300000F10801C16001610021016070470021D5
:101440000161704742684A6093688B609368596095
:101450009160086103685B1C0360704710B5024629
:101460000B685C1C0CB9106907E002F1080000E091
:101470004068446824689C42FAD944684C604C68CF
:10148000A160886041600A611468641C146010BD2A
:1014900001460A69D1E901309860D1E90103586039
:1014A0005068884201D18868506000200861106847
:1014B000401E10601068704710B5002407E004EB70
:1014C0008401FE4A02EB8100FFF7ACFF641C202C74
:1014D000F5D3FB48FFF7A6FFFA48FFF7A3FFFA484A
:1014E000FFF7A0FFF948FFF79DFFF948FFF79AFFC4
:1014F000F348F8490860F348F749086010BD10B593
:10150000044601F022FAF5480068401CF3490860DF
:10151000F348006840B9F2480460084600680128B2
:101520000DD1FFF7C9FF0AE0EE48006838B9EC4872
:101530000068C06AE16A884201D8E9480460EA4864
:101540000068401CE849086094F82C10012088408D
:10155000E64909680843E5490860E16A01EB810151
:10156000D64A02EB8100211DFFF76CFF01F010FA53
:10157000DC48006868B1DA480068C06AE16A8842FD
:1015800007D24FF08050DA490860BFF34F8FBFF3A6
:101590006F8F10BD2DE9FF5F81460E469246DDE953
:1015A0000E7B109CAAF10100216B01EB800828F052
:1015B000070808F0070008B9012000E0002028B95A
:1015C00040F22B32CBA1D2A001F0E0FB002507E0D6
:1015D000715D04F134004155705D00B902E06D1C8D
:1015E000102DF5D300BF002143200155202F00D33B
:1015F0001F27E762201DFFF722FF04F11800FFF705
:101600001EFF2461C7F12000A061646200206064B5
:1016100084F8480049464046039A01F023F92060C7
:10162000BBF1000F01D0CBF80040BDE8FF9F2DE9D2
:10163000FF4F85B0804689461746DDE912ABB800FA
:1016400001F08DFA064656B14C2001F088FA0446A6
:101650000CB1266304E0304601F004FB00E00024F6
:101660007CB10020CDE900ABCDE902403A464946C5
:101670004046089BFFF78EFF2046FFF740FF0125FD
:1016800001E04FF0FF35284609B0BDE8F08F9149E1
:101690000968096809B9012100E0002121B14FF072
:1016A000FF319F4A116006E08A490968C968C86825
:1016B0009B4A41681160704710B50446206B01F0E9
:1016C000D1FA204601F0CEFA10BD70B5054601F002
:1016D0003CF915B98248006800E028460446201D00
:1016E000FFF7D6FE78B9E06A00EB8000734951F845
:1016F000200040B994F82C10012088407B490968EB
:1017000081437A480160A06A18B104F11800FFF71C
:10171000BFFE75480068401C734908607048006847
:10172000844209D1211D6948FFF78CFE7D4800687D
:10173000401C7C49086009E068480068401E674911
:1017400008602046FFF7B8FFFFF7A1FF01F020F97E
:1017500064480068C0B162480068844214D172488D
:10176000006808B9012000E0002028B940F2654275
:1017700060A167A001F00AFB4FF080505C4908604F
:10178000BFF34F8FBFF36F8F70BD2DE9F0414FF066
:10179000000865480068002872D164480068451C4C
:1017A00062480560EDB94B480068006808B901203F
:1017B00000E0002028B940F6D9124EA154A001F053
:1017C000E5FA4448076844480068424908604248CE
:1017D000076057480068401C55490860FFF757FFED
:1017E00000BF4F48006885423CD300BF39480068BD
:1017F000006808B9012000E0002020B14FF0FF3060
:10180000474908602DE033480068C068C4686668CE
:10181000B54202D24248066023E0201DFFF738FEA1
:10182000A06A18B104F11800FFF732FE94F82C10EA
:10183000012088402D49096808432C490860E16A65
:1018400001EB81011D4A02EB8100211DFFF7FAFD2A
:101850002349E06A0968C96A8842C7D34FF0010882
:10186000C4E700BF1E480068C06A00EB800013494F
:1018700051F82000012801D94FF0010805E0FFE7E9
:101880002C480068401C2B4908602B48006808B1B0
:101890004FF001084046BDE8F08170B500240026F5
:1018A0002148006828B94FF4FD6212A118A001F088
:1018B0006DFA01F04AF81C4800683FE098000020EB
:1018C000180300202C0300204003002054030020B4
:1018D00068030020380000203C0000204400002065
:1018E0003400002050000020600000204C00002048
:1018F00004ED00E02E2E5C2E2E5C4672656552547F
:101900004F535C7363725C7461736B732E6300007E
:101910004572726F723A25732C25640D0A0000001F
:1019200064000020400000206C00002048000020DF
:101930005C0000205400002058000020401EFE499A
:1019400008600846006800284FD1FC48006800285D
:101950004BD024E0FA48C068C46804F11800FFF7CF
:1019600097FD201DFFF794FD94F82C10012088406E
:10197000F44909680843F3490860E16A01EB810111
:10198000F14A02EB8100211DFFF75CFDEF49E06A9F
:101990000968C96A884202D30120ED490860E84815
:1019A000006808B9012000E000200028D2D00CB166
:1019B000FFF76DFEE748056865B100BFFFF7E5FE7C
:1019C00010B10120E24908606D1E002DF6D1002003
:1019D000E0490860DE48006838B101263007DE497A
:1019E0000860BFF34F8FBFF36F8F00F0D1FF304619
:1019F00070BD2DE9F04105460E46D8480768D3482A
:101A00000068001DFFF744FD50B9D048006890F809
:101A10002C1001208840CB4909688143C9480160E6
:101A2000681C38B936B1C9480168091DCC48FFF7B0
:101A300009FD1AE07C19C54800684460BC4207D221
:101A4000C2480168091DC7480068FFF707FD0CE0A0
:101A5000BE480168091DC4480068FFF7FFFCC34881
:101A60000068844201D2C1480460BDE8F081B248F8
:101A70000068401CB049086070472DE9F0470446F3
:101A80000F464FF000093CB940F27942AFF29C1189
:101A9000AFF2841001F07AF90FB1012000E00020CC
:101AA00038B940F27A42AFF2B411AFF29C1001F0B3
:101AB0006DF9A148006808B9012000E0002038B99C
:101AC00040F27B42AFF2D411AFF2BC1001F05EF9EC
:101AD000FFF7CDFFA14806682068C5192068B0420D
:101AE00007D92068A8420BD9B54209D94FF001099E
:101AF00006E02068A84201D8B54201D94FF001099B
:101B00002560B9F1000F03D0A81B0021FFF771FF7A
:101B1000FFF7C3FE8046B8F1000F07D14FF08050A9
:101B20008D490860BFF34F8FBFF36F8FBDE8F0871B
:101B300070B504460025BCB17F48006808B9012093
:101B400000E0002038B940F2CF42AFF25821AFF2A6
:101B5000402001F01BF9FFF78AFF00212046FFF724
:101B600048FFFFF79AFE05463DB94FF080507A498D
:101B70000860BFF34F8FBFF36F8F70BD2DE9F04149
:101B800007463E463EB940F2FB42AFF29821AFF223
:101B9000802001F0FBF86D480068864201D10024E6
:101BA0001EE000F0D2FE756900F0F2FE6E4800689B
:101BB000854203D06B480068854201D102240FE0C2
:101BC0006748854205D1B06A08B9032408E00224B9
:101BD00006E06748854200D00DB9042400E00124E6
:101BE0002046BDE8F08170B5044600F0AEFE14B9A1
:101BF0005648006800E020460646F56A00F0C8FE38
:101C0000284670BD2DE9F041054600F0F1FE00BF09
:101C10005021EFF3118081F31188BFF34F8FBFF391
:101C20006F8F00BF044615B94848006800E0284699
:101C30000746FE6A00BF84F3118800BF3046BDE846
:101C4000F0812DE9F04780460D464FF00009202D28
:101C500001D2012000E0002038B94FF4B062AFF2A9
:101C60006C31AFF2543001F091F8202D00D31F25D4
:101C700000F06BFEB8F1000F02D13448006800E0BC
:101C800040460446E66AAE4251D0B5420BD92F48D1
:101C9000006884420DD02D480068C06AA84208D868
:101CA0004FF0010905E029480068844201D14FF056
:101CB0000109E76AE562A06900F0004010B9C5F1CA
:101CC0002000A06107EB87011F4A02EB81016069D8
:101CD000884201D1012000E00020E0B1201DFFF783
:101CE000D7FB30B90120B84016490968814315482F
:101CF000016094F82C1001208840124909680843BB
:101D000010490860E16A01EB81010F4A02EB810092
:101D1000211DFFF797FBB9F1000F07D04FF080505E
:101D20000D490860BFF34F8FBFF36F8F00BF00F006
:101D30002FFEBDE8F08700006C000020440000206A
:101D4000400300204C0000209800002034000020B8
:101D5000580000205400002004ED00E0480000205E
:101D6000680300203C0000203800002064000020B0
:101D70005403002010B5FE48006818B10120FD4949
:101D800008602FE00020FB490860FB480068B0FABB
:101D900080F0C0F11F0404EB8400F84951F82000E2
:101DA00008B1012000E0002038B940F6F622AFF279
:101DB000BC41AFF2A44000F0E9FF04EB8401EF4A1C
:101DC00002EB810041684968416000F10801426806
:101DD0008A4202D14168496841604168C968E84A5D
:101DE000116000BF10BD70B5054600F0AEFD15B91D
:101DF000E348006800E028460446201DFFF748FB42
:101E000078B9E06A00EB8000DC4951F8200040B965
:101E100094F82C1001208840D74909688143D6489E
:101E20000160A06A18B104F11800FFF731FB211D11
:101E3000D448FFF707FB00F0ABFDD348006828B19A
:101E400000F083FDFFF723FC00F0A2FDCC48006802
:101E5000844226D1CC480068B8B1C548006808B9AA
:101E6000012000E0002038B940F25762AFF27C5107
:101E7000AFF2645000F08AFF4FF08050C349086011
:101E8000BFF34F8FBFF36F8F0BE0BE480068C049B0
:101E90000968884203D10020B949086001E0FFF7D2
:101EA00069FF70BD70B5054600262C463DB940F26D
:101EB0008162AFF2C051AFF2A85000F067FFB149A4
:101EC0006069884201D1012000E0002070B1B14971
:101ED000A06A884201D1012000E0002030B9A06A48
:101EE00008B9012000E0002000B10126304670BD95
:101EF00070B505462C463DB940F2AB62AFF20C61BD
:101F0000AFF2F45000F042FF74B39D480068844281
:101F10002AD000F01AFD2046FFF7C4FF10B3201DA1
:101F2000FFF7B6FA94F82C1001208840924909680E
:101F3000084391490860E16A01EB81018F4A02EB95
:101F40008100211DFFF77EFA8D49E06A0968C96AA0
:101F5000884207D34FF080508C490860BFF34F8F01
:101F6000BFF36F8F00F014FD70BD2DE9F041064600
:101F7000002734463EB940F2E262AFF28861AFF228
:101F8000706000F003FF00F033FD00BF5021EFF35D
:101F9000118081F31188BFF34F8FBFF36F8F00BFA4
:101FA00005462046FFF77EFF20B371480068E0B980
:101FB0007349E06A0968C96A884200D30127201D75
:101FC000FFF766FA94F82C10012088406A490968E6
:101FD000084369490860E16A01EB8101674A02EB45
:101FE0008100211DFFF72EFA04E004F11801694871
:101FF000FFF728FA00BF85F3118800BF3846BDE817
:10200000F08170B523E0FFF732FD6348006808B93E
:10201000012000E000200546FFF73FFCBDB900F0BD
:1020200094FC5D48C068C468201DFFF731FA584829
:102030000068401E5649086058480068401E5749CD
:10204000086000F0A5FC2046FFF736FB00BF5348B0
:1020500000680028D7D170BD00BFFFF7D2FF474806
:1020600000680128F9D94FF0805048490860BFF353
:102070004F8FBFF36F8FF0E71CB5494800210B4627
:102080008022CDE9001047A14848FFF7D0FA044666
:10209000012C15D100BF502080F31188BFF34F8F62
:1020A000BFF36F8F00BF4FF0FF3041490860012040
:1020B0003549086000203F49086000F0EFFB0DE063
:1020C000601C08B1012000E0002038B940F28472A1
:1020D000AFF2E071AFF2C87000F058FE1CBD10B551
:1020E00000BF502080F31188BFF34F8FBFF36F8F75
:1020F00000BF00202449086000F016FC10BD2D49E7
:102100000868704770B500F073FC00252948046822
:10211000204670BD1E480068704770B5044614B96B
:102120001748006800E0204605463DB940F68C029D
:10213000AFF64001AFF6280000F028FE05F13400AC
:1021400070BD70B504460D463CB940F60632AFF698
:102150005C01AFF6440000F019FE0948016818312F
:102160002046FFF77BF901212846FFF742FC70BDAE
:102170006C000020580000204C0000209800002037
:1021800034000020680300205000002004ED00E02F
:1021900044000020400300205403002040000020A1
:1021A0006800002049444C45000000005920000808
:1021B000640000204800002070B504460D46164615
:1021C0003CB940F61732AFF6D401AFF6BC0000F0D0
:1021D000DDFDFE48006808B1012000E0002038B9AC
:1021E00040F61B32AFF6F401AFF6DC0000F0CEFD96
:1021F00045F00040F64909688861F54801681831E2
:102200002046FFF71FF901213046FFF7F2FB70BDB2
:1022100070B50646F068C4683CB940F66132AFF666
:102220002C11AFF6141000F0B1FD04F11800FFF707
:102230002FF9E6480068A8B9201DFFF729F994F89E
:102240002C1001208840E34909680843E1490860EF
:10225000E16A01EB8101E04A02EB8100211DFFF7F9
:10226000F1F804E004F11801DC48FFF7EBF8D84975
:10227000E06A0968C96A884204D901250120D84961
:10228000086000E00025284670BD2DE9F0410546B4
:102290000F46CE48006808B1012000E0002038B9A0
:1022A00040F69932AFF6B411AFF69C1000F06EFD17
:1022B00047F000402860EC683CB940F6A132AFF628
:1022C000CC11AFF6B41000F061FD2846FFF7E0F83E
:1022D000201DFFF7DDF894F82C1001208840BD493F
:1022E00009680843BB490860E16A01EB8101BA4A09
:1022F00002EB8100211DFFF7A5F8B549E06A0968E6
:10230000C96A884204D901260120B549086000E065
:1023100000263046BDE8F08110B504463CB940F6D1
:10232000C132AFF63021AFF6182000F02FFDAD48D6
:1023300000682060AC480068606010BD2DE9F04185
:1023400004460D463CB940F6CB32AFF65821AFF605
:10235000402000F01BFD3DB940F6CC32AFF66C21B9
:10236000AFF6542000F012FD00F0EFFA9E48076827
:102370002868401C08B9002619E09A4920680968B5
:10238000884204D06068B84201D801260FE0606836
:10239000381A2968884209D228686168791A401A6F
:1023A00028602046FFF7B8FF002600E0012600F075
:1023B000EFFA3046BDE8F081012089490860704796
:1023C0008A49096809B9012005E08049096809B905
:1023D000022000E0002070477D49096888697C4937
:1023E0000968C96AC1F12001794A12689161704790
:1023F00070B506460D4600F0A8FA75480068406CB6
:1024000088B901207249096881F848005DB101214D
:102410002846FFF7EEFA4FF0805075490860BFF389
:102420004F8FBFF36F8F00F0B3FA00F08EFA684859
:102430000068446C4CB126B10020654909684864C5
:1024400003E0601E62490968486400206049096829
:1024500081F8480000F09CFA204670BD2DE9F0415B
:102460000746884614461D4600F06FFA5848006833
:1024700090F84800022818D05549096801F1440035
:10248000496CB943016001205149096881F848004D
:102490005DB101212846FFF7ACFA4FF08050544956
:1024A0000860BFF34F8FBFF36F8F00F071FA00F039
:1024B0004CFA1CB146480068406C206044480068F3
:1024C00090F84800012801D1002608E04049096839
:1024D00001F14400496C21EA080101600126002055
:1024E0003B49096881F8480000F052FA3046BDE8DF
:1024F000F0812DE9F04706460D46174698464FF005
:10250000010A3EB941F2FD02AFF61841AFF60040B4
:1025100000F03CFC344600F018FAB8F1000F02D08D
:10252000606CC8F8000094F84890022084F84800D5
:10253000052F17D2DFE807F01503070B0D00606CBD
:10254000284360640EE0606C401C60640AE06564CF
:1025500008E0B9F1020F01D0656401E04FF0000A14
:1025600000E000BF00BFB9F1010F45D1201DFEF70B
:102570008FFF94F82C100120884016490968084301
:1025800014490860E16A01EB8101134A02EB810002
:10259000211DFEF757FFA06A08B9012000E00020C6
:1025A00038B941F23512AFF6B441AFF69C4000F0B5
:1025B000EDFB0749E06A0968C96A88421CD94FF0F7
:1025C00080500B490860BFF34F8F13E06C00002070
:1025D000340000204C000020980000204003002020
:1025E000580000205C00002048000020500000201F
:1025F00004ED00E0BFF36F8F00F0CAF95046BDE86C
:10260000F0872DE9F84F07460E4690469946DDF8CB
:1026100028B0012000903FB941F26812AFF62C516A
:10262000AFF6145000F0B2FB00F0E2F93C4600BFF8
:102630005021EFF3118081F31188BFF34F8FBFF367
:102640006F8F00BF0546B9F1000F02D0606CC9F86A
:10265000000094F848A0022084F84800B8F1050F63
:1026600017D2DFE808F01503070B0D00606C30434C
:1026700060640EE0606C401C60640AE0666408E020
:10268000BAF1020F01D0666401E00020009000E082
:1026900000BF00BFBAF1010F3BD1A06A08B9012009
:1026A00000E0002038B941F2AF12AFF6B851AFF6F2
:1026B000A05000F06BFB59480068A8B9201DFEF738
:1026C000E7FE94F82C10012088405549096808431A
:1026D00053490860E16A01EB8101524A02EB810033
:1026E000211DFEF7AFFE04E004F118014E48FEF78D
:1026F000A9FE4E49E06A0968C96A884209D9BBF156
:10270000000F03D00120CBF8000002E0012048496F
:10271000086000BF85F3118800BF0098BDE8F88FFE
:102720002DE9F04105460F463DB941F2E312AFF6FF
:102730003C61AFF6246000F029FB00F059F92C460B
:1027400000BF5021EFF3118081F31188BFF34F8F49
:10275000BFF36F8F00BF064694F84880022084F8CC
:102760004800606C401C6064B8F1010F38D1A06A69
:1027700008B9012000E0002038B941F20922AFF683
:102780008C61AFF6746000F001FB24480068A8B9C2
:10279000201DFEF77DFE94F82C1001208840204972
:1027A000096808431E490860E16A01EB81011D4A7E
:1027B00002EB8100211DFEF745FE04E004F1180143
:1027C0001948FEF73FFE1949E06A0968C96A88425C
:1027D00006D917B10120386002E0012014490860D1
:1027E00000BF86F3118800BFBDE8F08170B50546D3
:1027F00015B90E48006800E02846064600F0A5F826
:1028000096F84800022804D1002086F848000124E8
:1028100000E0002400F0BCF8204670BD6C000020F1
:102820004C000020980000204003002034000020CD
:102830005800002084480068401C08B9012000E0CE
:10284000002020B9F42281A18AA000F09FFA00BFE5
:10285000502080F31188BFF34F8FBFF36F8F00BFFD
:1028600000BFFEE7001F4FF080730360001F21F0E0
:1028700001030360001F834B03601438026020389B
:102880007047814800684FF47A71B0FBF1F0401E48
:102890004FF0E02148610720086170471CB57B4874
:1028A000014609780191FF2102461170014609781D
:1028B00000919DF8001001F05001754A1170072138
:1028C000744A116009E073490968491E714A116030
:1028D0009DF800104906090E00919DF8001001F0C6
:1028E00080018029EFD06B4909680902694A1160AB
:1028F0001146098801F4E0611160644A0199117080
:102900006548006840F47000634908600846006844
:1029100040F070400860FFF7B4FF00204A490860AB
:10292000FDF724FC00201CBD10B547480068B0F539
:102930007A7F01D1012000E0002028B94FF4B57260
:1029400042A14CA000F022FA10BD10B500BF5020EB
:1029500080F31188BFF34F8FBFF36F8F00BF3A48EA
:102960000068401C384908600846006801280ED1FC
:1029700049481C380068C0B208B9012000E00020B6
:1029800028B94FF4BD7231A13AA000F0FFF910BD93
:1029900010B52D48006828B940F281122BA135A04E
:1029A00000F0F4F928480068401E274908600846EE
:1029B000006820B9002080F3118800BF00BF10BD5F
:1029C00010B500BF502080F31188BFF34F8FBFF3C5
:1029D0006F8F00BFFEF7D9FE20B14FF080502E4917
:1029E0001C39086000BF002080F3118800BF10BDB3
:1029F00070B5FDF7F1FB0546102D11D305F1E02070
:102A000090F8F04322480078844201DB012000E086
:102A1000002028B94FF42A720CA116A000F0B6F9D4
:102A20001D481438006800F4E0601A4909688842BB
:102A300001D8012000E0002028B94FF42E7203A134
:102A40000CA000F0A3F970BD700000202E2E5C2EAB
:102A50002E5C4672656552544F535C706F72745CA5
:102A6000525644535C41524D5F434D335C706F721C
:102A7000742E63004572726F723A25732C25640DB3
:102A80000A000000352800080000002000E400E0F3
:102A9000740000207800002020ED00E010B5014611
:102AA000924800E0006803688B42FBD3024643680B
:102AB00013448B4204D143684C682344436001466D
:102AC0000A464B6813440468A34211D1884C03683A
:102AD0002468A34208D04B680468646823444B60B0
:102AE00003681B680B6005E0814B1B680B6001E00D
:102AF00003680B60884200D0016010BD30B54FF410
:102B000010437C4800F007042CB1C01D20F00700E2
:102B1000784C041B1B1B0246744C22600024734D2E
:102B20006C60D018083820F00700714C2060002439
:102B30006F4D2D686C606E4D2D682C601146441AE7
:102B40004C606B4C24680C606B4D4C682C606B4D7A
:102B50004C682C604FF00044694D2C6030BD2DE96D
:102B6000F04104464FF00008FEF781FF604800681E
:102B700008B9FFF7C3FF62480068204000285FD112
:102B8000A4B1083404F0070080B104F00700C0F1DC
:102B90000800044404F0070008B9012000E0002008
:102BA00020B9BF2257A161A000F0F0F8002C47D057
:102BB00052480068844243D84C4E3046056801E0D4
:102BC0002E462D686868A04202D228680028F7D1F6
:102BD00047480068854233D0306800F1080828680B
:102BE00030606868001B102813D92F1907F0070000
:102BF00008B9012000E0002020B9EC2241A14BA03F
:102C000000F0C4F86868001B78606C603846FFF715
:102C100045FF3A4968680968081A38490860084653
:102C2000006835490968884203D23448006832494F
:102C300008603349686809680843686000202860B4
:102C4000FEF72BFE08F0070008B9012000E0002085
:102C500028B94FF496722BA134A000F097F84046A3
:102C6000BDE8F08170B506463546002E35D0083DEA
:102C70002C46234960680968084008B1012000E03B
:102C8000002028B94FF4A0721EA128A000F07EF801
:102C9000206808B9012000E0002028B940F2411264
:102CA00018A122A000F072F8154960680968084070
:102CB00098B1206888B912496068096888436060E3
:102CC000FEF7D5FE0D496068096808440B490860A5
:102CD0002046FFF7E3FEFEF7E0FD70BD0748006801
:102CE0007047054800687047704700007C0000206E
:102CF000840000207C0300208C000020880000203D
:102D0000900000202E2E5C2E2E5C4672656552547B
:102D10004F535C706F72745C4D656D4D616E675C96
:102D2000686561705F342E63000000004572726F49
:102D3000723A25732C25640D0A00000030B50B464D
:102D4000014600202022012409E021FA02F59D42DB
:102D500005D303FA02F5491B04FA02F52844151EAF
:102D6000A2F10102F1DC30BD064C074D06E0E0683F
:102D700040F0010394E8070098471034AC42F6D3C2
:102D8000FDF7DAF9842F0008A42F00080FB4054BD3
:102D900010B503A9044A029800F018F810BC5DF8B9
:102DA00014FB0000E31300089400002002E008C8B0
:102DB000121F08C1002AFAD170477047002001E0B5
:102DC00001C1121F002AFBD1704700002DE9FF4FFF
:102DD0008BB09A460F460546002606E025280BD004
:102DE00052460D9990476D1C761C28780028F5D125
:102DF0000FB03046BDE8F08F0024A04601226049A4
:102E000000E0044315F8013F203B02FA03F00842BA
:102E1000F7D128782E2817D115F8010F44F00404B3
:102E20002A280ED06FF02F022878A0F1300109294E
:102E30000AD808EB880102EB410100EB01086D1C88
:102E4000F2E757F8048B6D1C287869283ED006DC21
:102E50000028CDD063280BD0642804D136E0732835
:102E600010D075284BD052460D999047761C85E0BE
:102E700017F8040B8DF8000000208DF80100E946DA
:102E8000012003E057F8049B4FF0FF3061074FF03B
:102E9000000401D40AE0641C44450DDA8442FADBE4
:102EA00019F804100029F6D106E0641C8442FCDB0A
:102EB00019F804100029F8D1264404E019F8010B90
:102EC00052460D999047641EF8D257E001CF4FF05B
:102ED0000A0B002802DA40422D2102E0210504D528
:102EE0002B218DF82410012103E0E10705D02021DA
:102EF000F7E70DF1200908910CE00021F9E701CF77
:102F00004FF00A0BF9E75946FFF718FF01F13002BD
:102F100009F8012D0028F6D1ADEB090000F1200BD6
:102F2000600701D44FF00108D84502DDA8EB0B0083
:102F300000E000208046002406E009A85246005D1B
:102F40000D999047641C761C08988442F5DB04E0D8
:102F5000302052460D999047761CB8F10001A8F137
:102F60000108F5DC05E019F8010B52460D99904770
:102F7000761CBBF10001ABF1010BF4DC6D1C34E7F6
:102F800009280100A42F000800000020980000007C
:102F9000AC2D00083C30000898000020E8960000A6
:102FA000BC2D000800A24A04000000000000000040
:102FB00001020304060708090000000001020304DF
:102FC00001020304060708090204060800000000C5
:102FD00000000000000000000000000000000000F1
:102FE00000000000000000000000000000000000E1
:102FF00000000000000000000000000000000000D1
:1030000000000000000000000000000000000000C0
:1030100000000000AAAAAAAA000000000000000008
:1030200000000000000000000000000000000000A0
:0C30300000000000000000000000000094
:0400000508000131BD
:00000001FF
